{
  "_format": "hh-sol-artifact-1",
  "contractName": "PdeX",
  "sourceName": "contracts/PdeX.sol",
  "abi": [
    {
      "inputs": [],
      "stateMutability": "nonpayable",
      "type": "constructor"
    },
    {
      "anonymous": false,
      "inputs": [
        {
          "indexed": false,
          "internalType": "string",
          "name": "groupName",
          "type": "string"
        },
        {
          "indexed": false,
          "internalType": "string",
          "name": "groupLogo",
          "type": "string"
        },
        {
          "indexed": true,
          "internalType": "address",
          "name": "from",
          "type": "address"
        }
      ],
      "name": "newGroup",
      "type": "event"
    },
    {
      "anonymous": false,
      "inputs": [
        {
          "indexed": false,
          "internalType": "string",
          "name": "message",
          "type": "string"
        },
        {
          "indexed": true,
          "internalType": "address",
          "name": "from",
          "type": "address"
        }
      ],
      "name": "newMessage",
      "type": "event"
    },
    {
      "inputs": [
        {
          "internalType": "string",
          "name": "_groupName",
          "type": "string"
        },
        {
          "internalType": "string",
          "name": "_groupLogo",
          "type": "string"
        }
      ],
      "name": "createGroup",
      "outputs": [],
      "stateMutability": "nonpayable",
      "type": "function"
    },
    {
      "inputs": [
        {
          "internalType": "string",
          "name": "_message",
          "type": "string"
        }
      ],
      "name": "createMessage",
      "outputs": [],
      "stateMutability": "nonpayable",
      "type": "function"
    },
    {
      "inputs": [],
      "name": "getAllGroups",
      "outputs": [
        {
          "components": [
            {
              "internalType": "string",
              "name": "groupName",
              "type": "string"
            },
            {
              "internalType": "string",
              "name": "groupLogo",
              "type": "string"
            },
            {
              "internalType": "address",
              "name": "groupOwner",
              "type": "address"
            }
          ],
          "internalType": "struct PdeX.Group[]",
          "name": "",
          "type": "tuple[]"
        }
      ],
      "stateMutability": "view",
      "type": "function"
    },
    {
      "inputs": [],
      "name": "getAllMessages",
      "outputs": [
        {
          "components": [
            {
              "internalType": "string",
              "name": "message",
              "type": "string"
            },
            {
              "internalType": "address",
              "name": "owner",
              "type": "address"
            }
          ],
          "internalType": "struct PdeX.Message[]",
          "name": "",
          "type": "tuple[]"
        }
      ],
      "stateMutability": "view",
      "type": "function"
    },
    {
      "inputs": [
        {
          "internalType": "uint256",
          "name": "",
          "type": "uint256"
        }
      ],
      "name": "groups",
      "outputs": [
        {
          "internalType": "string",
          "name": "groupName",
          "type": "string"
        },
        {
          "internalType": "string",
          "name": "groupLogo",
          "type": "string"
        },
        {
          "internalType": "address",
          "name": "groupOwner",
          "type": "address"
        }
      ],
      "stateMutability": "view",
      "type": "function"
    },
    {
      "inputs": [
        {
          "internalType": "uint256",
          "name": "",
          "type": "uint256"
        }
      ],
      "name": "messages",
      "outputs": [
        {
          "internalType": "string",
          "name": "message",
          "type": "string"
        },
        {
          "internalType": "address",
          "name": "owner",
          "type": "address"
        }
      ],
      "stateMutability": "view",
      "type": "function"
    }
  ],
  "bytecode": "0x60806040523480156200001157600080fd5b506200005d6040518060400160405280601781526020017f436f6e7472616374696e6720626f6f74696e672e2e2e2e0000000000000000008152506200006360201b620008e41760201c565b620001f7565b62000103816040516024016200007a919062000170565b6040516020818303038152906040527f41304fac000000000000000000000000000000000000000000000000000000007bffffffffffffffffffffffffffffffffffffffffffffffffffffffff19166020820180517bffffffffffffffffffffffffffffffffffffffffffffffffffffffff83818316178352505050506200010660201b60201c565b50565b60008151905060006a636f6e736f6c652e6c6f679050602083016000808483855afa5050505050565b60006200013c8262000194565b6200014881856200019f565b93506200015a818560208601620001b0565b6200016581620001e6565b840191505092915050565b600060208201905081810360008301526200018c81846200012f565b905092915050565b600081519050919050565b600082825260208201905092915050565b60005b83811015620001d0578082015181840152602081019050620001b3565b83811115620001e0576000848401525b50505050565b6000601f19601f8301169050919050565b61117680620002076000396000f3fe608060405234801561001057600080fd5b50600436106100625760003560e01c80630d80fefd14610067578063198a2de9146100985780631e4a97dd146100b457806321cd3cae146100d057806353f5e380146100ee57806396324bd41461010c575b600080fd5b610081600480360381019061007c9190610b73565b61013e565b60405161008f929190610e38565b60405180910390f35b6100b260048036038101906100ad9190610ac6565b61021a565b005b6100ce60048036038101906100c99190610b07565b610327565b005b6100d861045a565b6040516100e59190610dd2565b60405180910390f35b6100f6610633565b6040516101039190610df4565b60405180910390f35b61012660048036038101906101219190610b73565b61077a565b60405161013593929190610e9f565b60405180910390f35b6001818154811061014e57600080fd5b906000526020600020906002020160009150905080600001805461017190611057565b80601f016020809104026020016040519081016040528092919081815260200182805461019d90611057565b80156101ea5780601f106101bf576101008083540402835291602001916101ea565b820191906000526020600020905b8154815290600101906020018083116101cd57829003601f168201915b5050505050908060010160009054906101000a900473ffffffffffffffffffffffffffffffffffffffff16905082565b600160405180604001604052808381526020013373ffffffffffffffffffffffffffffffffffffffff168152509080600181540180825580915050600190039060005260206000209060020201600090919091909150600082015181600001908051906020019061028c9291906109a6565b5060208201518160010160006101000a81548173ffffffffffffffffffffffffffffffffffffffff021916908373ffffffffffffffffffffffffffffffffffffffff16021790555050503373ffffffffffffffffffffffffffffffffffffffff167fc6fc5ce58ec453c477a54ad9582f9abc521253f48b1d5588f630ee64afb75eb08260405161031c9190610e16565b60405180910390a250565b600060405180606001604052808481526020018381526020013373ffffffffffffffffffffffffffffffffffffffff168152509080600181540180825580915050600190039060005260206000209060030201600090919091909150600082015181600001908051906020019061039f9291906109a6565b5060208201518160010190805190602001906103bc9291906109a6565b5060408201518160020160006101000a81548173ffffffffffffffffffffffffffffffffffffffff021916908373ffffffffffffffffffffffffffffffffffffffff16021790555050503373ffffffffffffffffffffffffffffffffffffffff167fcaf37d79314f60caaeceebe79807acc50db5c82da3411ae399236e511dbe6208838360405161044e929190610e68565b60405180910390a25050565b60606000805480602002602001604051908101604052809291908181526020016000905b8282101561062a57838290600052602060002090600302016040518060600160405290816000820180546104b190611057565b80601f01602080910402602001604051908101604052809291908181526020018280546104dd90611057565b801561052a5780601f106104ff5761010080835404028352916020019161052a565b820191906000526020600020905b81548152906001019060200180831161050d57829003601f168201915b5050505050815260200160018201805461054390611057565b80601f016020809104026020016040519081016040528092919081815260200182805461056f90611057565b80156105bc5780601f10610591576101008083540402835291602001916105bc565b820191906000526020600020905b81548152906001019060200180831161059f57829003601f168201915b505050505081526020016002820160009054906101000a900473ffffffffffffffffffffffffffffffffffffffff1673ffffffffffffffffffffffffffffffffffffffff1673ffffffffffffffffffffffffffffffffffffffff16815250508152602001906001019061047e565b50505050905090565b60606001805480602002602001604051908101604052809291908181526020016000905b82821015610771578382906000526020600020906002020160405180604001604052908160008201805461068a90611057565b80601f01602080910402602001604051908101604052809291908181526020018280546106b690611057565b80156107035780601f106106d857610100808354040283529160200191610703565b820191906000526020600020905b8154815290600101906020018083116106e657829003601f168201915b505050505081526020016001820160009054906101000a900473ffffffffffffffffffffffffffffffffffffffff1673ffffffffffffffffffffffffffffffffffffffff1673ffffffffffffffffffffffffffffffffffffffff168152505081526020019060010190610657565b50505050905090565b6000818154811061078a57600080fd5b90600052602060002090600302016000915090508060000180546107ad90611057565b80601f01602080910402602001604051908101604052809291908181526020018280546107d990611057565b80156108265780601f106107fb57610100808354040283529160200191610826565b820191906000526020600020905b81548152906001019060200180831161080957829003601f168201915b50505050509080600101805461083b90611057565b80601f016020809104026020016040519081016040528092919081815260200182805461086790611057565b80156108b45780601f10610889576101008083540402835291602001916108b4565b820191906000526020600020905b81548152906001019060200180831161089757829003601f168201915b5050505050908060020160009054906101000a900473ffffffffffffffffffffffffffffffffffffffff16905083565b61097a816040516024016108f89190610e16565b6040516020818303038152906040527f41304fac000000000000000000000000000000000000000000000000000000007bffffffffffffffffffffffffffffffffffffffffffffffffffffffff19166020820180517bffffffffffffffffffffffffffffffffffffffffffffffffffffffff838183161783525050505061097d565b50565b60008151905060006a636f6e736f6c652e6c6f679050602083016000808483855afa5050505050565b8280546109b290611057565b90600052602060002090601f0160209004810192826109d45760008555610a1b565b82601f106109ed57805160ff1916838001178555610a1b565b82800160010185558215610a1b579182015b82811115610a1a5782518255916020019190600101906109ff565b5b509050610a289190610a2c565b5090565b5b80821115610a45576000816000905550600101610a2d565b5090565b6000610a5c610a5784610f09565b610ee4565b905082815260208101848484011115610a7457600080fd5b610a7f848285611015565b509392505050565b600082601f830112610a9857600080fd5b8135610aa8848260208601610a49565b91505092915050565b600081359050610ac081611129565b92915050565b600060208284031215610ad857600080fd5b600082013567ffffffffffffffff811115610af257600080fd5b610afe84828501610a87565b91505092915050565b60008060408385031215610b1a57600080fd5b600083013567ffffffffffffffff811115610b3457600080fd5b610b4085828601610a87565b925050602083013567ffffffffffffffff811115610b5d57600080fd5b610b6985828601610a87565b9150509250929050565b600060208284031215610b8557600080fd5b6000610b9384828501610ab1565b91505092915050565b6000610ba88383610d3e565b905092915050565b6000610bbc8383610d95565b905092915050565b610bcd81610fd9565b82525050565b610bdc81610fd9565b82525050565b6000610bed82610f5a565b610bf78185610f95565b935083602082028501610c0985610f3a565b8060005b85811015610c455784840389528151610c268582610b9c565b9450610c3183610f7b565b925060208a01995050600181019050610c0d565b50829750879550505050505092915050565b6000610c6282610f65565b610c6c8185610fa6565b935083602082028501610c7e85610f4a565b8060005b85811015610cba5784840389528151610c9b8582610bb0565b9450610ca683610f88565b925060208a01995050600181019050610c82565b50829750879550505050505092915050565b6000610cd782610f70565b610ce18185610fb7565b9350610cf1818560208601611024565b610cfa81611118565b840191505092915050565b6000610d1082610f70565b610d1a8185610fc8565b9350610d2a818560208601611024565b610d3381611118565b840191505092915050565b60006060830160008301518482036000860152610d5b8282610ccc565b91505060208301518482036020860152610d758282610ccc565b9150506040830151610d8a6040860182610bc4565b508091505092915050565b60006040830160008301518482036000860152610db28282610ccc565b9150506020830151610dc76020860182610bc4565b508091505092915050565b60006020820190508181036000830152610dec8184610be2565b905092915050565b60006020820190508181036000830152610e0e8184610c57565b905092915050565b60006020820190508181036000830152610e308184610d05565b905092915050565b60006040820190508181036000830152610e528185610d05565b9050610e616020830184610bd3565b9392505050565b60006040820190508181036000830152610e828185610d05565b90508181036020830152610e968184610d05565b90509392505050565b60006060820190508181036000830152610eb98186610d05565b90508181036020830152610ecd8185610d05565b9050610edc6040830184610bd3565b949350505050565b6000610eee610eff565b9050610efa8282611089565b919050565b6000604051905090565b600067ffffffffffffffff821115610f2457610f236110e9565b5b610f2d82611118565b9050602081019050919050565b6000819050602082019050919050565b6000819050602082019050919050565b600081519050919050565b600081519050919050565b600081519050919050565b6000602082019050919050565b6000602082019050919050565b600082825260208201905092915050565b600082825260208201905092915050565b600082825260208201905092915050565b600082825260208201905092915050565b6000610fe482610feb565b9050919050565b600073ffffffffffffffffffffffffffffffffffffffff82169050919050565b6000819050919050565b82818337600083830152505050565b60005b83811015611042578082015181840152602081019050611027565b83811115611051576000848401525b50505050565b6000600282049050600182168061106f57607f821691505b60208210811415611083576110826110ba565b5b50919050565b61109282611118565b810181811067ffffffffffffffff821117156110b1576110b06110e9565b5b80604052505050565b7f4e487b7100000000000000000000000000000000000000000000000000000000600052602260045260246000fd5b7f4e487b7100000000000000000000000000000000000000000000000000000000600052604160045260246000fd5b6000601f19601f8301169050919050565b6111328161100b565b811461113d57600080fd5b5056fea264697066735822122084444023c27fc50e03462c21293df5e49c61c9945ec222a5880d2e9df7c82b5064736f6c63430008040033",
  "linkReferences": {},
  "deployedLinkReferences": {}
}