{
  "_format": "hh-sol-artifact-1",
  "contractName": "PdeX",
  "sourceName": "contracts/PdeX.sol",
  "abi": [
    {
      "inputs": [],
      "stateMutability": "nonpayable",
      "type": "constructor"
    },
    {
      "anonymous": false,
      "inputs": [
        {
          "indexed": false,
          "internalType": "string",
          "name": "message",
          "type": "string"
        },
        {
          "indexed": true,
          "internalType": "address",
          "name": "from",
          "type": "address"
        }
      ],
      "name": "newMessage",
      "type": "event"
    },
    {
      "inputs": [
        {
          "internalType": "string",
          "name": "_groupName",
          "type": "string"
        },
        {
          "internalType": "string",
          "name": "_groupLogo",
          "type": "string"
        }
      ],
      "name": "createGroup",
      "outputs": [],
      "stateMutability": "nonpayable",
      "type": "function"
    },
    {
      "inputs": [
        {
          "internalType": "string",
          "name": "_message",
          "type": "string"
        }
      ],
      "name": "createMessage",
      "outputs": [],
      "stateMutability": "nonpayable",
      "type": "function"
    },
    {
      "inputs": [],
      "name": "getAllMessages",
      "outputs": [
        {
          "components": [
            {
              "internalType": "string",
              "name": "message",
              "type": "string"
            },
            {
              "internalType": "address",
              "name": "owner",
              "type": "address"
            }
          ],
          "internalType": "struct PdeX.Message[]",
          "name": "",
          "type": "tuple[]"
        }
      ],
      "stateMutability": "view",
      "type": "function"
    },
    {
      "inputs": [
        {
          "internalType": "uint256",
          "name": "",
          "type": "uint256"
        }
      ],
      "name": "groups",
      "outputs": [
        {
          "internalType": "string",
          "name": "groupName",
          "type": "string"
        },
        {
          "internalType": "string",
          "name": "groupLogo",
          "type": "string"
        },
        {
          "internalType": "address",
          "name": "groupOwner",
          "type": "address"
        }
      ],
      "stateMutability": "view",
      "type": "function"
    },
    {
      "inputs": [
        {
          "internalType": "uint256",
          "name": "",
          "type": "uint256"
        }
      ],
      "name": "messages",
      "outputs": [
        {
          "internalType": "string",
          "name": "message",
          "type": "string"
        },
        {
          "internalType": "address",
          "name": "owner",
          "type": "address"
        }
      ],
      "stateMutability": "view",
      "type": "function"
    }
  ],
  "bytecode": "0x60806040523480156200001157600080fd5b506200005d6040518060400160405280601781526020017f436f6e7472616374696e6720626f6f74696e672e2e2e2e0000000000000000008152506200006360201b620006921760201c565b620001f7565b62000103816040516024016200007a919062000170565b6040516020818303038152906040527f41304fac000000000000000000000000000000000000000000000000000000007bffffffffffffffffffffffffffffffffffffffffffffffffffffffff19166020820180517bffffffffffffffffffffffffffffffffffffffffffffffffffffffff83818316178352505050506200010660201b60201c565b50565b60008151905060006a636f6e736f6c652e6c6f679050602083016000808483855afa5050505050565b60006200013c8262000194565b6200014881856200019f565b93506200015a818560208601620001b0565b6200016581620001e6565b840191505092915050565b600060208201905081810360008301526200018c81846200012f565b905092915050565b600081519050919050565b600082825260208201905092915050565b60005b83811015620001d0578082015181840152602081019050620001b3565b83811115620001e0576000848401525b50505050565b6000601f19601f8301169050919050565b610db280620002076000396000f3fe608060405234801561001057600080fd5b50600436106100575760003560e01c80630d80fefd1461005c578063198a2de91461008d5780631e4a97dd146100a957806353f5e380146100c557806396324bd4146100e3575b600080fd5b61007660048036038101906100719190610921565b610115565b604051610084929190610ae4565b60405180910390f35b6100a760048036038101906100a29190610874565b6101f1565b005b6100c360048036038101906100be91906108b5565b6102fe565b005b6100cd6103e1565b6040516100da9190610aa0565b60405180910390f35b6100fd60048036038101906100f89190610921565b610528565b60405161010c93929190610b14565b60405180910390f35b6001818154811061012557600080fd5b906000526020600020906002020160009150905080600001805461014890610c93565b80601f016020809104026020016040519081016040528092919081815260200182805461017490610c93565b80156101c15780601f10610196576101008083540402835291602001916101c1565b820191906000526020600020905b8154815290600101906020018083116101a457829003601f168201915b5050505050908060010160009054906101000a900473ffffffffffffffffffffffffffffffffffffffff16905082565b600160405180604001604052808381526020013373ffffffffffffffffffffffffffffffffffffffff1681525090806001815401808255809150506001900390600052602060002090600202016000909190919091506000820151816000019080519060200190610263929190610754565b5060208201518160010160006101000a81548173ffffffffffffffffffffffffffffffffffffffff021916908373ffffffffffffffffffffffffffffffffffffffff16021790555050503373ffffffffffffffffffffffffffffffffffffffff167fc6fc5ce58ec453c477a54ad9582f9abc521253f48b1d5588f630ee64afb75eb0826040516102f39190610ac2565b60405180910390a250565b600060405180606001604052808481526020018381526020013373ffffffffffffffffffffffffffffffffffffffff1681525090806001815401808255809150506001900390600052602060002090600302016000909190919091506000820151816000019080519060200190610376929190610754565b506020820151816001019080519060200190610393929190610754565b5060408201518160020160006101000a81548173ffffffffffffffffffffffffffffffffffffffff021916908373ffffffffffffffffffffffffffffffffffffffff16021790555050505050565b60606001805480602002602001604051908101604052809291908181526020016000905b8282101561051f578382906000526020600020906002020160405180604001604052908160008201805461043890610c93565b80601f016020809104026020016040519081016040528092919081815260200182805461046490610c93565b80156104b15780601f10610486576101008083540402835291602001916104b1565b820191906000526020600020905b81548152906001019060200180831161049457829003601f168201915b505050505081526020016001820160009054906101000a900473ffffffffffffffffffffffffffffffffffffffff1673ffffffffffffffffffffffffffffffffffffffff1673ffffffffffffffffffffffffffffffffffffffff168152505081526020019060010190610405565b50505050905090565b6000818154811061053857600080fd5b906000526020600020906003020160009150905080600001805461055b90610c93565b80601f016020809104026020016040519081016040528092919081815260200182805461058790610c93565b80156105d45780601f106105a9576101008083540402835291602001916105d4565b820191906000526020600020905b8154815290600101906020018083116105b757829003601f168201915b5050505050908060010180546105e990610c93565b80601f016020809104026020016040519081016040528092919081815260200182805461061590610c93565b80156106625780601f1061063757610100808354040283529160200191610662565b820191906000526020600020905b81548152906001019060200180831161064557829003601f168201915b5050505050908060020160009054906101000a900473ffffffffffffffffffffffffffffffffffffffff16905083565b610728816040516024016106a69190610ac2565b6040516020818303038152906040527f41304fac000000000000000000000000000000000000000000000000000000007bffffffffffffffffffffffffffffffffffffffffffffffffffffffff19166020820180517bffffffffffffffffffffffffffffffffffffffffffffffffffffffff838183161783525050505061072b565b50565b60008151905060006a636f6e736f6c652e6c6f679050602083016000808483855afa5050505050565b82805461076090610c93565b90600052602060002090601f01602090048101928261078257600085556107c9565b82601f1061079b57805160ff19168380011785556107c9565b828001600101855582156107c9579182015b828111156107c85782518255916020019190600101906107ad565b5b5090506107d691906107da565b5090565b5b808211156107f35760008160009055506001016107db565b5090565b600061080a61080584610b7e565b610b59565b90508281526020810184848401111561082257600080fd5b61082d848285610c51565b509392505050565b600082601f83011261084657600080fd5b81356108568482602086016107f7565b91505092915050565b60008135905061086e81610d65565b92915050565b60006020828403121561088657600080fd5b600082013567ffffffffffffffff8111156108a057600080fd5b6108ac84828501610835565b91505092915050565b600080604083850312156108c857600080fd5b600083013567ffffffffffffffff8111156108e257600080fd5b6108ee85828601610835565b925050602083013567ffffffffffffffff81111561090b57600080fd5b61091785828601610835565b9150509250929050565b60006020828403121561093357600080fd5b60006109418482850161085f565b91505092915050565b60006109568383610a63565b905092915050565b61096781610c15565b82525050565b61097681610c15565b82525050565b600061098782610bbf565b6109918185610be2565b9350836020820285016109a385610baf565b8060005b858110156109df57848403895281516109c0858261094a565b94506109cb83610bd5565b925060208a019950506001810190506109a7565b50829750879550505050505092915050565b60006109fc82610bca565b610a068185610bf3565b9350610a16818560208601610c60565b610a1f81610d54565b840191505092915050565b6000610a3582610bca565b610a3f8185610c04565b9350610a4f818560208601610c60565b610a5881610d54565b840191505092915050565b60006040830160008301518482036000860152610a8082826109f1565b9150506020830151610a95602086018261095e565b508091505092915050565b60006020820190508181036000830152610aba818461097c565b905092915050565b60006020820190508181036000830152610adc8184610a2a565b905092915050565b60006040820190508181036000830152610afe8185610a2a565b9050610b0d602083018461096d565b9392505050565b60006060820190508181036000830152610b2e8186610a2a565b90508181036020830152610b428185610a2a565b9050610b51604083018461096d565b949350505050565b6000610b63610b74565b9050610b6f8282610cc5565b919050565b6000604051905090565b600067ffffffffffffffff821115610b9957610b98610d25565b5b610ba282610d54565b9050602081019050919050565b6000819050602082019050919050565b600081519050919050565b600081519050919050565b6000602082019050919050565b600082825260208201905092915050565b600082825260208201905092915050565b600082825260208201905092915050565b6000610c2082610c27565b9050919050565b600073ffffffffffffffffffffffffffffffffffffffff82169050919050565b6000819050919050565b82818337600083830152505050565b60005b83811015610c7e578082015181840152602081019050610c63565b83811115610c8d576000848401525b50505050565b60006002820490506001821680610cab57607f821691505b60208210811415610cbf57610cbe610cf6565b5b50919050565b610cce82610d54565b810181811067ffffffffffffffff82111715610ced57610cec610d25565b5b80604052505050565b7f4e487b7100000000000000000000000000000000000000000000000000000000600052602260045260246000fd5b7f4e487b7100000000000000000000000000000000000000000000000000000000600052604160045260246000fd5b6000601f19601f8301169050919050565b610d6e81610c47565b8114610d7957600080fd5b5056fea2646970667358221220cca58219ed737fe6d67fed4ff4c210790dc214081932b60b47ecbf5dd38032ff64736f6c63430008040033",
  "linkReferences": {},
  "deployedLinkReferences": {}
}