{
  "_format": "hh-sol-artifact-1",
  "contractName": "PdeX",
  "sourceName": "contracts/PdeX.sol",
  "abi": [
    {
      "inputs": [],
      "stateMutability": "nonpayable",
      "type": "constructor"
    },
    {
      "anonymous": false,
      "inputs": [
        {
          "indexed": false,
          "internalType": "string",
          "name": "message",
          "type": "string"
        },
        {
          "indexed": true,
          "internalType": "address",
          "name": "from",
          "type": "address"
        }
      ],
      "name": "newMessage",
      "type": "event"
    },
    {
      "inputs": [
        {
          "internalType": "string",
          "name": "_groupName",
          "type": "string"
        },
        {
          "internalType": "string",
          "name": "_groupLogo",
          "type": "string"
        }
      ],
      "name": "createGroup",
      "outputs": [],
      "stateMutability": "nonpayable",
      "type": "function"
    },
    {
      "inputs": [
        {
          "internalType": "string",
          "name": "_message",
          "type": "string"
        }
      ],
      "name": "createMessage",
      "outputs": [],
      "stateMutability": "nonpayable",
      "type": "function"
    },
    {
      "inputs": [],
      "name": "getAllGroups",
      "outputs": [
        {
          "components": [
            {
              "internalType": "string",
              "name": "groupName",
              "type": "string"
            },
            {
              "internalType": "string",
              "name": "groupLogo",
              "type": "string"
            },
            {
              "internalType": "address",
              "name": "groupOwner",
              "type": "address"
            }
          ],
          "internalType": "struct PdeX.Group[]",
          "name": "",
          "type": "tuple[]"
        }
      ],
      "stateMutability": "view",
      "type": "function"
    },
    {
      "inputs": [],
      "name": "getAllMessages",
      "outputs": [
        {
          "components": [
            {
              "internalType": "string",
              "name": "message",
              "type": "string"
            },
            {
              "internalType": "address",
              "name": "owner",
              "type": "address"
            }
          ],
          "internalType": "struct PdeX.Message[]",
          "name": "",
          "type": "tuple[]"
        }
      ],
      "stateMutability": "view",
      "type": "function"
    },
    {
      "inputs": [
        {
          "internalType": "uint256",
          "name": "",
          "type": "uint256"
        }
      ],
      "name": "groups",
      "outputs": [
        {
          "internalType": "string",
          "name": "groupName",
          "type": "string"
        },
        {
          "internalType": "string",
          "name": "groupLogo",
          "type": "string"
        },
        {
          "internalType": "address",
          "name": "groupOwner",
          "type": "address"
        }
      ],
      "stateMutability": "view",
      "type": "function"
    },
    {
      "inputs": [
        {
          "internalType": "uint256",
          "name": "",
          "type": "uint256"
        }
      ],
      "name": "messages",
      "outputs": [
        {
          "internalType": "string",
          "name": "message",
          "type": "string"
        },
        {
          "internalType": "address",
          "name": "owner",
          "type": "address"
        }
      ],
      "stateMutability": "view",
      "type": "function"
    }
  ],
  "bytecode": "0x60806040523480156200001157600080fd5b506200005d6040518060400160405280601781526020017f436f6e7472616374696e6720626f6f74696e672e2e2e2e0000000000000000008152506200006360201b620008941760201c565b620001f7565b62000103816040516024016200007a919062000170565b6040516020818303038152906040527f41304fac000000000000000000000000000000000000000000000000000000007bffffffffffffffffffffffffffffffffffffffffffffffffffffffff19166020820180517bffffffffffffffffffffffffffffffffffffffffffffffffffffffff83818316178352505050506200010660201b60201c565b50565b60008151905060006a636f6e736f6c652e6c6f679050602083016000808483855afa5050505050565b60006200013c8262000194565b6200014881856200019f565b93506200015a818560208601620001b0565b6200016581620001e6565b840191505092915050565b600060208201905081810360008301526200018c81846200012f565b905092915050565b600081519050919050565b600082825260208201905092915050565b60005b83811015620001d0578082015181840152602081019050620001b3565b83811115620001e0576000848401525b50505050565b6000601f19601f8301169050919050565b6110ef80620002076000396000f3fe608060405234801561001057600080fd5b50600436106100625760003560e01c80630d80fefd14610067578063198a2de9146100985780631e4a97dd146100b457806321cd3cae146100d057806353f5e380146100ee57806396324bd41461010c575b600080fd5b610081600480360381019061007c9190610b23565b61013e565b60405161008f929190610de8565b60405180910390f35b6100b260048036038101906100ad9190610a76565b61021a565b005b6100ce60048036038101906100c99190610ab7565b610327565b005b6100d861040a565b6040516100e59190610d82565b60405180910390f35b6100f66105e3565b6040516101039190610da4565b60405180910390f35b61012660048036038101906101219190610b23565b61072a565b60405161013593929190610e18565b60405180910390f35b6001818154811061014e57600080fd5b906000526020600020906002020160009150905080600001805461017190610fd0565b80601f016020809104026020016040519081016040528092919081815260200182805461019d90610fd0565b80156101ea5780601f106101bf576101008083540402835291602001916101ea565b820191906000526020600020905b8154815290600101906020018083116101cd57829003601f168201915b5050505050908060010160009054906101000a900473ffffffffffffffffffffffffffffffffffffffff16905082565b600160405180604001604052808381526020013373ffffffffffffffffffffffffffffffffffffffff168152509080600181540180825580915050600190039060005260206000209060020201600090919091909150600082015181600001908051906020019061028c929190610956565b5060208201518160010160006101000a81548173ffffffffffffffffffffffffffffffffffffffff021916908373ffffffffffffffffffffffffffffffffffffffff16021790555050503373ffffffffffffffffffffffffffffffffffffffff167fc6fc5ce58ec453c477a54ad9582f9abc521253f48b1d5588f630ee64afb75eb08260405161031c9190610dc6565b60405180910390a250565b600060405180606001604052808481526020018381526020013373ffffffffffffffffffffffffffffffffffffffff168152509080600181540180825580915050600190039060005260206000209060030201600090919091909150600082015181600001908051906020019061039f929190610956565b5060208201518160010190805190602001906103bc929190610956565b5060408201518160020160006101000a81548173ffffffffffffffffffffffffffffffffffffffff021916908373ffffffffffffffffffffffffffffffffffffffff16021790555050505050565b60606000805480602002602001604051908101604052809291908181526020016000905b828210156105da578382906000526020600020906003020160405180606001604052908160008201805461046190610fd0565b80601f016020809104026020016040519081016040528092919081815260200182805461048d90610fd0565b80156104da5780601f106104af576101008083540402835291602001916104da565b820191906000526020600020905b8154815290600101906020018083116104bd57829003601f168201915b505050505081526020016001820180546104f390610fd0565b80601f016020809104026020016040519081016040528092919081815260200182805461051f90610fd0565b801561056c5780601f106105415761010080835404028352916020019161056c565b820191906000526020600020905b81548152906001019060200180831161054f57829003601f168201915b505050505081526020016002820160009054906101000a900473ffffffffffffffffffffffffffffffffffffffff1673ffffffffffffffffffffffffffffffffffffffff1673ffffffffffffffffffffffffffffffffffffffff16815250508152602001906001019061042e565b50505050905090565b60606001805480602002602001604051908101604052809291908181526020016000905b82821015610721578382906000526020600020906002020160405180604001604052908160008201805461063a90610fd0565b80601f016020809104026020016040519081016040528092919081815260200182805461066690610fd0565b80156106b35780601f10610688576101008083540402835291602001916106b3565b820191906000526020600020905b81548152906001019060200180831161069657829003601f168201915b505050505081526020016001820160009054906101000a900473ffffffffffffffffffffffffffffffffffffffff1673ffffffffffffffffffffffffffffffffffffffff1673ffffffffffffffffffffffffffffffffffffffff168152505081526020019060010190610607565b50505050905090565b6000818154811061073a57600080fd5b906000526020600020906003020160009150905080600001805461075d90610fd0565b80601f016020809104026020016040519081016040528092919081815260200182805461078990610fd0565b80156107d65780601f106107ab576101008083540402835291602001916107d6565b820191906000526020600020905b8154815290600101906020018083116107b957829003601f168201915b5050505050908060010180546107eb90610fd0565b80601f016020809104026020016040519081016040528092919081815260200182805461081790610fd0565b80156108645780601f1061083957610100808354040283529160200191610864565b820191906000526020600020905b81548152906001019060200180831161084757829003601f168201915b5050505050908060020160009054906101000a900473ffffffffffffffffffffffffffffffffffffffff16905083565b61092a816040516024016108a89190610dc6565b6040516020818303038152906040527f41304fac000000000000000000000000000000000000000000000000000000007bffffffffffffffffffffffffffffffffffffffffffffffffffffffff19166020820180517bffffffffffffffffffffffffffffffffffffffffffffffffffffffff838183161783525050505061092d565b50565b60008151905060006a636f6e736f6c652e6c6f679050602083016000808483855afa5050505050565b82805461096290610fd0565b90600052602060002090601f01602090048101928261098457600085556109cb565b82601f1061099d57805160ff19168380011785556109cb565b828001600101855582156109cb579182015b828111156109ca5782518255916020019190600101906109af565b5b5090506109d891906109dc565b5090565b5b808211156109f55760008160009055506001016109dd565b5090565b6000610a0c610a0784610e82565b610e5d565b905082815260208101848484011115610a2457600080fd5b610a2f848285610f8e565b509392505050565b600082601f830112610a4857600080fd5b8135610a588482602086016109f9565b91505092915050565b600081359050610a70816110a2565b92915050565b600060208284031215610a8857600080fd5b600082013567ffffffffffffffff811115610aa257600080fd5b610aae84828501610a37565b91505092915050565b60008060408385031215610aca57600080fd5b600083013567ffffffffffffffff811115610ae457600080fd5b610af085828601610a37565b925050602083013567ffffffffffffffff811115610b0d57600080fd5b610b1985828601610a37565b9150509250929050565b600060208284031215610b3557600080fd5b6000610b4384828501610a61565b91505092915050565b6000610b588383610cee565b905092915050565b6000610b6c8383610d45565b905092915050565b610b7d81610f52565b82525050565b610b8c81610f52565b82525050565b6000610b9d82610ed3565b610ba78185610f0e565b935083602082028501610bb985610eb3565b8060005b85811015610bf55784840389528151610bd68582610b4c565b9450610be183610ef4565b925060208a01995050600181019050610bbd565b50829750879550505050505092915050565b6000610c1282610ede565b610c1c8185610f1f565b935083602082028501610c2e85610ec3565b8060005b85811015610c6a5784840389528151610c4b8582610b60565b9450610c5683610f01565b925060208a01995050600181019050610c32565b50829750879550505050505092915050565b6000610c8782610ee9565b610c918185610f30565b9350610ca1818560208601610f9d565b610caa81611091565b840191505092915050565b6000610cc082610ee9565b610cca8185610f41565b9350610cda818560208601610f9d565b610ce381611091565b840191505092915050565b60006060830160008301518482036000860152610d0b8282610c7c565b91505060208301518482036020860152610d258282610c7c565b9150506040830151610d3a6040860182610b74565b508091505092915050565b60006040830160008301518482036000860152610d628282610c7c565b9150506020830151610d776020860182610b74565b508091505092915050565b60006020820190508181036000830152610d9c8184610b92565b905092915050565b60006020820190508181036000830152610dbe8184610c07565b905092915050565b60006020820190508181036000830152610de08184610cb5565b905092915050565b60006040820190508181036000830152610e028185610cb5565b9050610e116020830184610b83565b9392505050565b60006060820190508181036000830152610e328186610cb5565b90508181036020830152610e468185610cb5565b9050610e556040830184610b83565b949350505050565b6000610e67610e78565b9050610e738282611002565b919050565b6000604051905090565b600067ffffffffffffffff821115610e9d57610e9c611062565b5b610ea682611091565b9050602081019050919050565b6000819050602082019050919050565b6000819050602082019050919050565b600081519050919050565b600081519050919050565b600081519050919050565b6000602082019050919050565b6000602082019050919050565b600082825260208201905092915050565b600082825260208201905092915050565b600082825260208201905092915050565b600082825260208201905092915050565b6000610f5d82610f64565b9050919050565b600073ffffffffffffffffffffffffffffffffffffffff82169050919050565b6000819050919050565b82818337600083830152505050565b60005b83811015610fbb578082015181840152602081019050610fa0565b83811115610fca576000848401525b50505050565b60006002820490506001821680610fe857607f821691505b60208210811415610ffc57610ffb611033565b5b50919050565b61100b82611091565b810181811067ffffffffffffffff8211171561102a57611029611062565b5b80604052505050565b7f4e487b7100000000000000000000000000000000000000000000000000000000600052602260045260246000fd5b7f4e487b7100000000000000000000000000000000000000000000000000000000600052604160045260246000fd5b6000601f19601f8301169050919050565b6110ab81610f84565b81146110b657600080fd5b5056fea264697066735822122060253e2542199858c668e544d64a6f8874d4910ac9ad1421e9097ca53c36789f64736f6c63430008040033",
  "linkReferences": {},
  "deployedLinkReferences": {}
}